{
  "contractName": "RevGold",
  "abi": [
    {
      "inputs": [],
      "stateMutability": "nonpayable",
      "type": "constructor"
    },
    {
      "anonymous": false,
      "inputs": [
        {
          "indexed": false,
          "internalType": "uint256",
          "name": "amount",
          "type": "uint256"
        },
        {
          "indexed": false,
          "internalType": "address",
          "name": "userAddress",
          "type": "address"
        },
        {
          "indexed": false,
          "internalType": "address",
          "name": "tokenAddress",
          "type": "address"
        }
      ],
      "name": "DepositAction",
      "type": "event"
    },
    {
      "anonymous": false,
      "inputs": [
        {
          "indexed": true,
          "internalType": "address",
          "name": "previousOwner",
          "type": "address"
        },
        {
          "indexed": true,
          "internalType": "address",
          "name": "newOwner",
          "type": "address"
        }
      ],
      "name": "OwnershipTransferred",
      "type": "event"
    },
    {
      "anonymous": false,
      "inputs": [
        {
          "indexed": false,
          "internalType": "uint256",
          "name": "amount",
          "type": "uint256"
        },
        {
          "indexed": false,
          "internalType": "address",
          "name": "userAddress",
          "type": "address"
        },
        {
          "indexed": false,
          "internalType": "address",
          "name": "tokenAddress",
          "type": "address"
        }
      ],
      "name": "WithdrawAction",
      "type": "event"
    },
    {
      "inputs": [
        {
          "internalType": "address",
          "name": "admin",
          "type": "address"
        }
      ],
      "name": "addAdmin",
      "outputs": [],
      "stateMutability": "nonpayable",
      "type": "function"
    },
    {
      "inputs": [
        {
          "internalType": "uint256",
          "name": "",
          "type": "uint256"
        }
      ],
      "name": "allAdmins",
      "outputs": [
        {
          "internalType": "address",
          "name": "",
          "type": "address"
        }
      ],
      "stateMutability": "view",
      "type": "function"
    },
    {
      "inputs": [
        {
          "internalType": "address",
          "name": "",
          "type": "address"
        }
      ],
      "name": "balancesForContract",
      "outputs": [
        {
          "internalType": "uint256",
          "name": "",
          "type": "uint256"
        }
      ],
      "stateMutability": "view",
      "type": "function"
    },
    {
      "inputs": [
        {
          "internalType": "uint256",
          "name": "amount",
          "type": "uint256"
        },
        {
          "internalType": "address",
          "name": "tokenAddress",
          "type": "address"
        }
      ],
      "name": "deposit",
      "outputs": [],
      "stateMutability": "nonpayable",
      "type": "function"
    },
    {
      "inputs": [],
      "name": "getAllAdmins",
      "outputs": [
        {
          "internalType": "address[]",
          "name": "",
          "type": "address[]"
        }
      ],
      "stateMutability": "view",
      "type": "function"
    },
    {
      "inputs": [],
      "name": "getOwner",
      "outputs": [
        {
          "internalType": "address",
          "name": "",
          "type": "address"
        }
      ],
      "stateMutability": "view",
      "type": "function"
    },
    {
      "inputs": [],
      "name": "getTokens",
      "outputs": [
        {
          "internalType": "address[]",
          "name": "",
          "type": "address[]"
        }
      ],
      "stateMutability": "view",
      "type": "function"
    },
    {
      "inputs": [],
      "name": "isAdmin",
      "outputs": [
        {
          "internalType": "bool",
          "name": "",
          "type": "bool"
        }
      ],
      "stateMutability": "view",
      "type": "function"
    },
    {
      "inputs": [],
      "name": "owner",
      "outputs": [
        {
          "internalType": "address",
          "name": "",
          "type": "address"
        }
      ],
      "stateMutability": "view",
      "type": "function"
    },
    {
      "inputs": [
        {
          "internalType": "address",
          "name": "admin",
          "type": "address"
        }
      ],
      "name": "removeAdmin",
      "outputs": [],
      "stateMutability": "nonpayable",
      "type": "function"
    },
    {
      "inputs": [],
      "name": "renounceOwnership",
      "outputs": [],
      "stateMutability": "nonpayable",
      "type": "function"
    },
    {
      "inputs": [
        {
          "internalType": "address",
          "name": "newOwner",
          "type": "address"
        }
      ],
      "name": "transferOwnership",
      "outputs": [],
      "stateMutability": "nonpayable",
      "type": "function"
    },
    {
      "inputs": [
        {
          "internalType": "uint256",
          "name": "fee",
          "type": "uint256"
        }
      ],
      "name": "updateFee",
      "outputs": [],
      "stateMutability": "nonpayable",
      "type": "function"
    },
    {
      "inputs": [
        {
          "internalType": "address[]",
          "name": "tokens",
          "type": "address[]"
        }
      ],
      "name": "updateTokens",
      "outputs": [],
      "stateMutability": "nonpayable",
      "type": "function"
    },
    {
      "inputs": [
        {
          "internalType": "uint256",
          "name": "amount",
          "type": "uint256"
        },
        {
          "internalType": "address",
          "name": "tokenAddress",
          "type": "address"
        }
      ],
      "name": "withdraw",
      "outputs": [],
      "stateMutability": "nonpayable",
      "type": "function"
    },
    {
      "inputs": [],
      "name": "withdrawFee",
      "outputs": [
        {
          "internalType": "uint256",
          "name": "",
          "type": "uint256"
        }
      ],
      "stateMutability": "view",
      "type": "function"
    }
  ],
  "bytecode": "0x60806040523480156200001157600080fd5b50d380156200001f57600080fd5b50d280156200002d57600080fd5b50620000426200003c62000061565b62000065565b6200005662000050620000b5565b620000c4565b60fa60035562000274565b3390565b600080546001600160a01b038381166001600160a01b0319831681178455604051919092169283917f8be0079c531659141344cd1fd0a4f28419497f9722a3daafe3b4186f6b6457e09190a35050565b6000546001600160a01b031690565b620000ce62000148565b620000f65760405162461bcd60e51b8152600401620000ed9062000215565b60405180910390fd5b600280546001810182556000919091527f405787fa12a823e0f2b7631cc41b3ba8828b3321ca811111fa75cd3aa3bb5ace0180546001600160a01b0319166001600160a01b0392909216919091179055565b6000806200015f6200015962000061565b62000195565b1215806200019057506200017262000061565b6001600160a01b031662000185620000b5565b6001600160a01b0316145b905090565b6000805b6002548110156200020957826001600160a01b031660028281548110620001d057634e487b7160e01b600052603260045260246000fd5b6000918252602090912001546001600160a01b03161415620001f457905062000210565b8062000200816200024c565b91505062000199565b5060001990505b919050565b6020808252601d908201527f41646d696e61626c653a2041646d696e20726f6c652072657175697265000000604082015260600190565b60006000198214156200026d57634e487b7160e01b81526011600452602481fd5b5060010190565b610d5b80620002846000396000f3fe608060405234801561001057600080fd5b50d3801561001d57600080fd5b50d2801561002a57600080fd5b50600436106101195760003560e01c80639012c4a8116100b1578063de41691c11610080578063de41691c1461020a578063e941fa781461021d578063e9523c9714610225578063f2fde38b1461022d57610119565b80639012c4a8146101ad5780639fe9b989146101c0578063aa6ca808146101e0578063b6db75a0146101f557610119565b806370480275116100ed5780637048027514610182578063715018a614610195578063893d20e81461019d5780638da5cb5b146101a557610119565b8062f714ce1461011e57806306a4dc68146101335780631785f53c1461015c5780636e553f651461016f575b600080fd5b61013161012c366004610a9f565b610240565b005b610146610141366004610a87565b61037d565b6040516101539190610aca565b60405180910390f35b61013161016a366004610985565b6103a7565b61013161017d366004610a9f565b610416565b610131610190366004610985565b610507565b61013161057d565b610146610591565b6101466105a0565b6101316101bb366004610a87565b6105af565b6101d36101ce366004610985565b6105f8565b6040516101539190610c87565b6101e861060a565b6040516101539190610b1b565b6101fd61066c565b6040516101539190610b68565b6101316102183660046109a6565b6106af565b6101d361075c565b6101e8610762565b61013161023b366004610985565b6107e6565b600061024a610820565b6001600160a01b03831660009081526001602052604090205490915083111561028e5760405162461bcd60e51b815260040161028590610b73565b60405180910390fd5b60405163a9059cbb60e01b81526001600160a01b0383169063a9059cbb906102bc9084908790600401610b02565b602060405180830381600087803b1580156102d657600080fd5b505af11580156102ea573d6000803e3d6000fd5b505050506040513d601f19601f8201168201806040525081019061030e9190610a67565b506001600160a01b03821660009081526001602052604081208054859290610337908490610cc7565b90915550506040517f3685138431fa0b0736785e61ad076a89689a76a28fcc5733bcbf6a9b8957fbdf9061037090859084908690610c90565b60405180910390a1505050565b6002818154811061038d57600080fd5b6000918252602090912001546001600160a01b0316905081565b6103af61066c565b6103cb5760405162461bcd60e51b815260040161028590610c50565b60006103d682610824565b9050600281815481106103f957634e487b7160e01b600052603260045260246000fd5b600091825260209091200180546001600160a01b03191690555050565b6000610420610820565b6040516323b872dd60e01b81529091506001600160a01b038316906323b872dd9061045390849030908890600401610ade565b602060405180830381600087803b15801561046d57600080fd5b505af1158015610481573d6000803e3d6000fd5b505050506040513d601f19601f820116820180604052508101906104a59190610a67565b506001600160a01b038216600090815260016020526040812080548592906104ce908490610caf565b90915550506040517fd3e482944545505f78bc28463aba1c6896ec44e3c23ae0c8f7196ceefdec4e179061037090859084908690610c90565b61050f61066c565b61052b5760405162461bcd60e51b815260040161028590610c50565b600280546001810182556000919091527f405787fa12a823e0f2b7631cc41b3ba8828b3321ca811111fa75cd3aa3bb5ace0180546001600160a01b0319166001600160a01b0392909216919091179055565b61058561089d565b61058f60006108dc565b565b600061059b6105a0565b905090565b6000546001600160a01b031690565b6105b761066c565b6105d35760405162461bcd60e51b815260040161028590610c50565b600081116105f35760405162461bcd60e51b815260040161028590610c19565b600355565b60016020526000908152604090205481565b6060600480548060200260200160405190810160405280929190818152602001828054801561066257602002820191906000526020600020905b81546001600160a01b03168152600190910190602001808311610644575b5050505050905090565b60008061067f61067a610820565b610824565b12158061059b575061068f610820565b6001600160a01b03166106a06105a0565b6001600160a01b031614905090565b6106b761066c565b6106d35760405162461bcd60e51b815260040161028590610c50565b6106df6004600061092c565b60005b815181101561075857600482828151811061070d57634e487b7160e01b600052603260045260246000fd5b60209081029190910181015182546001810184556000938452919092200180546001600160a01b0319166001600160a01b0390921691909117905561075181610cde565b90506106e2565b5050565b60035481565b606061076c61066c565b6107885760405162461bcd60e51b815260040161028590610c50565b6002805480602002602001604051908101604052809291908181526020018280548015610662576020028201919060005260206000209081546001600160a01b03168152600190910190602001808311610644575050505050905090565b6107ee61089d565b6001600160a01b0381166108145760405162461bcd60e51b815260040161028590610b9e565b61081d816108dc565b50565b3390565b6000805b60025481101561089157826001600160a01b03166002828154811061085d57634e487b7160e01b600052603260045260246000fd5b6000918252602090912001546001600160a01b0316141561087f579050610898565b8061088981610cde565b915050610828565b5060001990505b919050565b6108a5610820565b6001600160a01b03166108b66105a0565b6001600160a01b03161461058f5760405162461bcd60e51b815260040161028590610be4565b600080546001600160a01b038381166001600160a01b0319831681178455604051919092169283917f8be0079c531659141344cd1fd0a4f28419497f9722a3daafe3b4186f6b6457e09190a35050565b508054600082559060005260206000209081019061081d91905b8082111561095a5760008155600101610946565b5090565b600081356001600160a81b0381168114610976578182fd5b6001600160a01b031692915050565b600060208284031215610996578081fd5b61099f8261095e565b9392505050565b600060208083850312156109b8578182fd5b823567ffffffffffffffff808211156109cf578384fd5b818501915085601f8301126109e2578384fd5b8135818111156109f4576109f4610d0f565b83810260405185828201018181108582111715610a1357610a13610d0f565b604052828152858101935084860182860187018a1015610a31578788fd5b8795505b83861015610a5a57610a468161095e565b855260019590950194938601938601610a35565b5098975050505050505050565b600060208284031215610a78578081fd5b8151801515811461099f578182fd5b600060208284031215610a98578081fd5b5035919050565b60008060408385031215610ab1578081fd5b82359150610ac16020840161095e565b90509250929050565b6001600160a01b0391909116815260200190565b6001600160a01b039384168152919092166020820152604081019190915260600190565b6001600160a01b03929092168252602082015260400190565b6020808252825182820181905260009190848201906040850190845b81811015610b5c5783516001600160a01b031683529284019291840191600101610b37565b50909695505050505050565b901515815260200190565b6020808252601190820152704e6f7420656e6f756768206d6f6e65792160781b604082015260600190565b60208082526026908201527f4f776e61626c653a206e6577206f776e657220697320746865207a65726f206160408201526564647265737360d01b606082015260800190565b6020808252818101527f4f776e61626c653a2063616c6c6572206973206e6f7420746865206f776e6572604082015260600190565b6020808252601a908201527f46656520726571756972652067726561746572207468656e2031000000000000604082015260600190565b6020808252601d908201527f41646d696e61626c653a2041646d696e20726f6c652072657175697265000000604082015260600190565b90815260200190565b9283526001600160a01b03918216602084015216604082015260600190565b60008219821115610cc257610cc2610cf9565b500190565b600082821015610cd957610cd9610cf9565b500390565b6000600019821415610cf257610cf2610cf9565b5060010190565b634e487b7160e01b600052601160045260246000fd5b634e487b7160e01b600052604160045260246000fdfea2646970667358221220e07c0e360a25ccceddc1598e8ea4d377563e8f2a019d0b8e598ee633fde192e564736f6c63430008000033",
  "source": "// SPDX-License-Identifier: MIT\n\npragma solidity ^0.8.0;\n\nimport \"@openzeppelin/contracts/token/ERC20/ERC20.sol\";\nimport \"@openzeppelin/contracts/access/Ownable.sol\";\n\ncontract RevGold is Ownable {\n  mapping(address => uint256) public balancesForContract;\n  address[] public allAdmins;\n  uint256 public withdrawFee;\n  address[] private availableTokens;\n\n  event DepositAction(\n    uint256 amount,\n    address userAddress,\n    address tokenAddress\n  );\n  event WithdrawAction(\n    uint256 amount,\n    address userAddress,\n    address tokenAddress\n  );\n\n  constructor() {\n    addAdmin(owner());\n    withdrawFee = 250;\n  }\n\n  function updateTokens(address[] memory tokens) public onlyAdmin {\n    delete availableTokens;\n    for (uint256 i = 0; i < tokens.length; ++i) {\n      availableTokens.push(tokens[i]);\n    }\n  }\n\n  function getTokens() public view returns (address[] memory) {\n    return availableTokens;\n  }\n\n  function isAdmin() public view returns (bool) {\n    return findAdmin(_msgSender()) >= 0 || (owner() == _msgSender());\n  }\n\n  modifier onlyAdmin() {\n    require(isAdmin(), \"Adminable: Admin role require\");\n    _;\n  }\n\n  function findAdmin(address admin) private view returns (int256) {\n    for (uint256 i = 0; i < allAdmins.length; i++) {\n      if (allAdmins[i] == admin) return int256(i);\n    }\n    return -1;\n  }\n\n  function getAllAdmins() public view onlyAdmin returns (address[] memory) {\n    return allAdmins;\n  }\n\n  function getOwner() public view returns (address) {\n    return owner();\n  }\n\n  function addAdmin(address admin) public onlyAdmin {\n    allAdmins.push(admin);\n  }\n\n  function removeAdmin(address admin) public onlyAdmin {\n    int256 index = findAdmin(admin);\n    delete allAdmins[uint256(index)];\n  }\n\n  function updateFee(uint256 fee) public onlyAdmin {\n    require(fee > 0, \"Fee require greater then 1\");\n    withdrawFee = fee;\n  }\n\n  function deposit(uint256 amount, address tokenAddress) external {\n    address userAddress = _msgSender();\n    ERC20(tokenAddress).transferFrom(userAddress, address(this), amount);\n    balancesForContract[tokenAddress] += amount;\n    emit DepositAction(amount, userAddress, tokenAddress);\n  }\n\n  function withdraw(uint256 amount, address tokenAddress) external {\n    address userAddress = _msgSender();\n    require(balancesForContract[tokenAddress] >= amount, \"Not enough money!\");\n    ERC20(tokenAddress).transfer(userAddress, amount);\n    balancesForContract[tokenAddress] -= amount;\n    emit WithdrawAction(amount, userAddress, tokenAddress);\n  }\n}",
  "sourcePath": "/Users/dev/Work/SmartContract/tronbox/contracts/RevGold.sol",
  "compiler": {
    "name": "solc",
    "version": "0.8.0+commit.7c2e6412.Emscripten.clang"
  },
  "schemaVersion": "2.0.1",
  "updatedAt": "2024-06-06T03:13:49.647Z"
}